{
  "contractName": "DappToken",
  "abi": [
    {
      "inputs": [],
      "name": "totalSupply",
      "outputs": [
        {
          "internalType": "uint256",
          "name": "",
          "type": "uint256"
        }
      ],
      "stateMutability": "view",
      "type": "function",
      "constant": true
    },
    {
      "inputs": [],
      "name": "DapToken",
      "outputs": [],
      "stateMutability": "nonpayable",
      "type": "function"
    }
  ],
  "bytecode": "0x608060405234801561001057600080fd5b5060d08061001f6000396000f3fe6080604052348015600f57600080fd5b506004361060325760003560e01c806317090d1c14603757806318160ddd14603f575b600080fd5b603d6059565b005b60456064565b604051605091906081565b60405180910390f35b612710600081905550565b60005481565b6000819050919050565b607b81606a565b82525050565b6000602082019050609460008301846074565b9291505056fea2646970667358221220c93ed378b66fabf885f1fdcbc742401d8e64318385a25ab67c0d0f64302172b764736f6c634300080f0033",
  "immutableReferences": {},
  "source": "// SPDX-License-Identifier: MIT\r\npragma solidity >=0.4.22 ;\r\n\r\ncontract DappToken {\r\n  uint256 public totalSupply ;\r\n  \r\n\r\n  function DapToken() public{\r\n    totalSupply = 10000;\r\n  }\r\n}\r\n",
  "sourcePath": "C:\\Users\\moaza\\contracts\\contracts\\DappToken.sol",
  "compiler": {
    "name": "solc",
    "version": "0.8.15+commit.e14f2714.Emscripten.clang"
  },
  "schemaVersion": "3.4.8",
  "updatedAt": "2022-07-21T08:37:52.160Z",
  "networkType": "ethereum",
  "devdoc": {
    "kind": "dev",
    "methods": {},
    "version": 1
  },
  "userdoc": {
    "kind": "user",
    "methods": {},
    "version": 1
  }
}